S01000004D69647465726D312E7372656311
S11300000C9434000C9451000C9451000C94510045
S11300100C9451000C9451000C9451000C94510018
S11300200C9451000C9451000C9451000C94510008
S11300300C9451000C9451000C9451000C945100F8
S11300400C9451000C9451000C9451000C945100E8
S11300500C9451000C9453000C9451000C945100D6
S11300600C9451000C94510011241FBECFEFD8E022
S1130070DEBFCDBF11E0A0E0B1E0E6E7F3E002C0EF
S113008005900D92A03AB107D9F721E0A0EAB1E0BA
S113009001C01D92A63AB207E1F70E940F010C9429
S11300A0B9010C9400001F920F920FB60F92112405
S11300B02F933F934F935F936F937F938F939F936C
S11300C0AF93BF93EF93FF93CF93DF93CDB7DEB797
S11300D02797DEBFCDBF1A82198280917900880FDD
S11300E08093A5018091A5014AE0BE016D5F7F4F19
S11300F090E00E94840189819A810597B8F4E9818E
S1130100FA81A981BA8183E090E08C0F9D1FA80F2A
S1130110B91F8C91E056FE4F808389819A810196A4
S11301209A83898389819A81059748F327960FB624
S1130130F894DEBF0FBECDBFDF91CF91FF91EF9159
S1130140BF91AF919F918F917F916F915F914F91EB
S11301503F912F910F900FBE0F901F901895109202
S1130160C50080E18093C400E0ECF0E0808182600F
S11301708083E1ECF0E0808188608083E2ECF0E051
S113018080818660808378940895CF93DF9300D034
S113019000D0CDB7DEB7AC011A8219821C821B8253
S11301A01C821B82EB81FC81E80FF91F808188236C
S11301B069F02B813C812F5F3F4F3C832B83EB8184
S11301C0FC81E40FF51F80818111F3CF29813A81ED
S11301D08B819C8128173907D8F4E0ECF0E066ECB9
S11301E070E0908195FFFDCFA981BA81A40FB51F5E
S11301F08C91DB018C9329813A812F5F3F4F3A83A5
S1130200298329813A818B819C812817390748F3F6
S11302100F900F900F900F90DF91CF910895ECE71E
S1130220F0E010828081806480838081806280839A
S1130230EAE7F0E080818062808310927B00808115
S113024080688083808188608083808180648083EB
S11302508081876080830E94AF002FEF83ED90E35D
S1130260215080409040E1F700C0000082E991E015
S11302700E94C5002FEF83ED90E321508040904011
S1130280E1F700C0000085E791E00E94C5002FEF70
S113029087EA91E6215080409040E1F700C00000D9
S11302A087E691E00E94C5002FEF83ED90E3215093
S11302B080409040E1F700C000008EE391E00E948E
S11302C0C5002FEF83ED90E3215080409040E1F78B
S11302D000C000008EE291E00E94C5002FEF83ED84
S11302E090E3215080409040E1F700C0000085E099
S11302F091E00E94C50080EA91E00E94C50080E080
S113030091E00E94C500D0CFBB274A3031F4992335
S113031022F4BDE2909581959F4F0C949001BB27E8
S1130320FB015527AA27880F991FAA1FA41710F0AD
S1130330A41B83955051B9F7A05DAA3308F0A95DB9
S1130340A193009779F7B111B1931192CB010C9459
S1130350A901DC01FC01672F71917723E1F7329742
S113036004C07C916D9370836291AE17BF07C8F38C
S10903700895F894FFCF8C
S11303760D0A0D0A00474554202F75706461746593
S11303863F6B65793D4D4C38374158435A4C42389A
S11303964147554C46266669656C64313D004154B7
S11303A62B43495053454E443D34350D0A004154C0
S11303B62B43495053544152543D22544350222C0A
S11303C6223138342E3130362E3135332E3134390C
S11303D6222C38300D0A0041542B4349504D5558B0
S11303E63D300D0A0041542B43574A41503D224AA1
S11303F6494A4A47222C2022787878787878220D40
S11304060A0041542B43574D4F44453D330D0A00D2
S9030000FC
